{
  "contractName": "DistributionTrustee",
  "abi": [
    {
      "inputs": [],
      "stateMutability": "nonpayable",
      "type": "constructor"
    },
    {
      "anonymous": false,
      "inputs": [
        {
          "indexed": false,
          "internalType": "address",
          "name": "accountAddress",
          "type": "address"
        },
        {
          "indexed": false,
          "internalType": "uint256",
          "name": "amount",
          "type": "uint256"
        }
      ],
      "name": "LogDepositMade",
      "type": "event"
    },
    {
      "anonymous": false,
      "inputs": [
        {
          "indexed": false,
          "internalType": "address",
          "name": "accountAddress",
          "type": "address"
        }
      ],
      "name": "LogEnrolled",
      "type": "event"
    },
    {
      "anonymous": false,
      "inputs": [
        {
          "indexed": false,
          "internalType": "uint256",
          "name": "stage",
          "type": "uint256"
        },
        {
          "indexed": false,
          "internalType": "string",
          "name": "stagedesc",
          "type": "string"
        },
        {
          "indexed": false,
          "internalType": "uint256",
          "name": "amount",
          "type": "uint256"
        }
      ],
      "name": "LogEvent",
      "type": "event"
    },
    {
      "anonymous": false,
      "inputs": [
        {
          "indexed": false,
          "internalType": "address",
          "name": "sender",
          "type": "address"
        },
        {
          "indexed": false,
          "internalType": "uint256",
          "name": "amt",
          "type": "uint256"
        }
      ],
      "name": "LogReceipt",
      "type": "event"
    },
    {
      "anonymous": false,
      "inputs": [
        {
          "indexed": false,
          "internalType": "address",
          "name": "stage",
          "type": "address"
        }
      ],
      "name": "LogStage",
      "type": "event"
    },
    {
      "anonymous": false,
      "inputs": [
        {
          "indexed": false,
          "internalType": "address",
          "name": "accountAddress",
          "type": "address"
        },
        {
          "indexed": false,
          "internalType": "uint256",
          "name": "withdrawAmount",
          "type": "uint256"
        },
        {
          "indexed": false,
          "internalType": "uint256",
          "name": "newBalance",
          "type": "uint256"
        }
      ],
      "name": "LogWithdrawal",
      "type": "event"
    },
    {
      "stateMutability": "payable",
      "type": "fallback"
    },
    {
      "inputs": [],
      "name": "AdminFeesCumulPaid",
      "outputs": [
        {
          "internalType": "uint256",
          "name": "",
          "type": "uint256"
        }
      ],
      "stateMutability": "view",
      "type": "function"
    },
    {
      "inputs": [],
      "name": "AdminFeesPayable",
      "outputs": [
        {
          "internalType": "uint256",
          "name": "",
          "type": "uint256"
        }
      ],
      "stateMutability": "view",
      "type": "function"
    },
    {
      "inputs": [],
      "name": "AmtReceived",
      "outputs": [
        {
          "internalType": "uint256",
          "name": "",
          "type": "uint256"
        }
      ],
      "stateMutability": "view",
      "type": "function"
    },
    {
      "inputs": [],
      "name": "BondholdersCumulPaid",
      "outputs": [
        {
          "internalType": "uint256",
          "name": "",
          "type": "uint256"
        }
      ],
      "stateMutability": "view",
      "type": "function"
    },
    {
      "inputs": [],
      "name": "BondholdersPayable",
      "outputs": [
        {
          "internalType": "uint256",
          "name": "",
          "type": "uint256"
        }
      ],
      "stateMutability": "view",
      "type": "function"
    },
    {
      "inputs": [],
      "name": "CumulativePaidOutBalance",
      "outputs": [
        {
          "internalType": "uint256",
          "name": "",
          "type": "uint256"
        }
      ],
      "stateMutability": "view",
      "type": "function"
    },
    {
      "inputs": [],
      "name": "CumulativeReceivedBalance",
      "outputs": [
        {
          "internalType": "uint256",
          "name": "",
          "type": "uint256"
        }
      ],
      "stateMutability": "view",
      "type": "function"
    },
    {
      "inputs": [],
      "name": "EmployeeSalariesCumulPaid",
      "outputs": [
        {
          "internalType": "uint256",
          "name": "",
          "type": "uint256"
        }
      ],
      "stateMutability": "view",
      "type": "function"
    },
    {
      "inputs": [],
      "name": "EmployeeSalariesPayable",
      "outputs": [
        {
          "internalType": "uint256",
          "name": "",
          "type": "uint256"
        }
      ],
      "stateMutability": "view",
      "type": "function"
    },
    {
      "inputs": [],
      "name": "EquityCumulPaid",
      "outputs": [
        {
          "internalType": "uint256",
          "name": "",
          "type": "uint256"
        }
      ],
      "stateMutability": "view",
      "type": "function"
    },
    {
      "inputs": [],
      "name": "EquityPayable",
      "outputs": [
        {
          "internalType": "uint256",
          "name": "",
          "type": "uint256"
        }
      ],
      "stateMutability": "view",
      "type": "function"
    },
    {
      "inputs": [],
      "name": "GovtTaxesCumulPaid",
      "outputs": [
        {
          "internalType": "uint256",
          "name": "",
          "type": "uint256"
        }
      ],
      "stateMutability": "view",
      "type": "function"
    },
    {
      "inputs": [],
      "name": "GovtTaxesPayable",
      "outputs": [
        {
          "internalType": "uint256",
          "name": "",
          "type": "uint256"
        }
      ],
      "stateMutability": "view",
      "type": "function"
    },
    {
      "inputs": [],
      "name": "JrCreditorsCumulPaid",
      "outputs": [
        {
          "internalType": "uint256",
          "name": "",
          "type": "uint256"
        }
      ],
      "stateMutability": "view",
      "type": "function"
    },
    {
      "inputs": [],
      "name": "JrCreditorsPayable",
      "outputs": [
        {
          "internalType": "uint256",
          "name": "",
          "type": "uint256"
        }
      ],
      "stateMutability": "view",
      "type": "function"
    },
    {
      "inputs": [],
      "name": "SrSecuredCreditorsCumulPaid",
      "outputs": [
        {
          "internalType": "uint256",
          "name": "",
          "type": "uint256"
        }
      ],
      "stateMutability": "view",
      "type": "function"
    },
    {
      "inputs": [],
      "name": "SrSecuredCreditorsPayable",
      "outputs": [
        {
          "internalType": "uint256",
          "name": "",
          "type": "uint256"
        }
      ],
      "stateMutability": "view",
      "type": "function"
    },
    {
      "inputs": [
        {
          "internalType": "uint256",
          "name": "",
          "type": "uint256"
        }
      ],
      "name": "distributions",
      "outputs": [
        {
          "internalType": "uint256",
          "name": "distNum",
          "type": "uint256"
        },
        {
          "internalType": "uint256",
          "name": "AmountPaid",
          "type": "uint256"
        },
        {
          "internalType": "address payable",
          "name": "SentTo",
          "type": "address"
        }
      ],
      "stateMutability": "view",
      "type": "function"
    },
    {
      "inputs": [
        {
          "internalType": "address",
          "name": "",
          "type": "address"
        }
      ],
      "name": "enrolled",
      "outputs": [
        {
          "internalType": "bool",
          "name": "",
          "type": "bool"
        }
      ],
      "stateMutability": "view",
      "type": "function"
    },
    {
      "inputs": [],
      "name": "owner",
      "outputs": [
        {
          "internalType": "address payable",
          "name": "",
          "type": "address"
        }
      ],
      "stateMutability": "view",
      "type": "function"
    },
    {
      "inputs": [
        {
          "internalType": "uint256",
          "name": "",
          "type": "uint256"
        }
      ],
      "name": "receipts",
      "outputs": [
        {
          "internalType": "uint256",
          "name": "receiptNum",
          "type": "uint256"
        },
        {
          "internalType": "uint256",
          "name": "AmountReceived",
          "type": "uint256"
        },
        {
          "internalType": "address payable",
          "name": "ReceivedFrom",
          "type": "address"
        }
      ],
      "stateMutability": "view",
      "type": "function"
    },
    {
      "inputs": [],
      "name": "A_receivePmts",
      "outputs": [
        {
          "internalType": "uint256",
          "name": "",
          "type": "uint256"
        }
      ],
      "stateMutability": "payable",
      "type": "function"
    },
    {
      "inputs": [],
      "name": "D_makeDistributions",
      "outputs": [],
      "stateMutability": "payable",
      "type": "function"
    },
    {
      "inputs": [],
      "name": "D1_distributeToAdminFees",
      "outputs": [],
      "stateMutability": "payable",
      "type": "function"
    },
    {
      "inputs": [],
      "name": "D2_distributeToEmployeeSalaries",
      "outputs": [],
      "stateMutability": "payable",
      "type": "function"
    },
    {
      "inputs": [],
      "name": "D3_distributeToGovtTaxes",
      "outputs": [],
      "stateMutability": "payable",
      "type": "function"
    },
    {
      "inputs": [],
      "name": "D4_distributeToSrSecuredCreditors",
      "outputs": [],
      "stateMutability": "payable",
      "type": "function"
    },
    {
      "inputs": [],
      "name": "D5_distributeToBondholders",
      "outputs": [],
      "stateMutability": "payable",
      "type": "function"
    },
    {
      "inputs": [],
      "name": "D6_distributeToJrCreditors",
      "outputs": [],
      "stateMutability": "payable",
      "type": "function"
    },
    {
      "inputs": [],
      "name": "D7_distributeToEquity",
      "outputs": [],
      "stateMutability": "payable",
      "type": "function"
    },
    {
      "inputs": [],
      "name": "returnGas",
      "outputs": [],
      "stateMutability": "payable",
      "type": "function"
    },
    {
      "inputs": [
        {
          "internalType": "uint256",
          "name": "Amt",
          "type": "uint256"
        },
        {
          "internalType": "address payable",
          "name": "PartyToPay",
          "type": "address"
        }
      ],
      "name": "distributePayments",
      "outputs": [],
      "stateMutability": "payable",
      "type": "function"
    }
  ],
  "bytecode": "0x6080604052600080556000600155600060025560006004556000600555600060065561520860075573ab8483f64d9c6d1ecf9b849ae677dd3315835cb2600860006101000a81548173ffffffffffffffffffffffffffffffffffffffff021916908373ffffffffffffffffffffffffffffffffffffffff160217905550734b20993bc481177ec7e8f571cecae8a9e22c02db600960006101000a81548173ffffffffffffffffffffffffffffffffffffffff021916908373ffffffffffffffffffffffffffffffffffffffff1602179055507378731d3ca6b7e34ac0f824c42a7cc18a495cabab600a60006101000a81548173ffffffffffffffffffffffffffffffffffffffff021916908373ffffffffffffffffffffffffffffffffffffffff16021790555073617f2e2fd72fd9d5503197092ac168c91465e7f2600b60006101000a81548173ffffffffffffffffffffffffffffffffffffffff021916908373ffffffffffffffffffffffffffffffffffffffff1602179055507317f6ad8ef982297579c203069c1dbffe4348c372600c60006101000a81548173ffffffffffffffffffffffffffffffffffffffff021916908373ffffffffffffffffffffffffffffffffffffffff160217905550735c6b0f7bf3e7ce046039bd8fabdfd3f9f5021678600d60006101000a81548173ffffffffffffffffffffffffffffffffffffffff021916908373ffffffffffffffffffffffffffffffffffffffff1602179055507303c6fced478cbbc9a4fab34ef9f40767739d1ff7600e60006101000a81548173ffffffffffffffffffffffffffffffffffffffff021916908373ffffffffffffffffffffffffffffffffffffffff1602179055506003600f55600f54600a0a603c02601055600f54600a0a606e02601155600f54600a0a604102601255600f54600a0a607802601355600f54600a0a605002601455603c60155560286016556064601755600060185560006019556000601a556000601b556000601c556000601d556000601e556000601f5560006020556000602155600060225560006023556000602455600060255560006028556000602a5534801561032657600080fd5b5033600360006101000a81548173ffffffffffffffffffffffffffffffffffffffff021916908373ffffffffffffffffffffffffffffffffffffffff160217905550611888806103776000396000f3fe6080604052600436106101e75760003560e01c8063ad299f9b11610102578063eb1899e611610095578063f1ca93d511610064578063f1ca93d514610670578063f5605c661461069b578063f56e9e1d146106c6578063f61dc0d5146106f1576101e8565b8063eb1899e614610606578063edbf0d1b14610631578063edc6b2821461063b578063efe3333714610666576101e8565b8063ca2b1c89116100d1578063ca2b1c891461059c578063d27a198d146105a6578063e85232eb146105d1578063eaa263bc146105db576101e8565b8063ad299f9b146104fb578063ba886c6414610505578063c59934b414610523578063c7174fc51461054e576101e8565b806362b757a61161017a5780638da5cb5b116101495780638da5cb5b1461047b5780638fe4d937146104bc5780639a129e87146104c6578063a2de8e6b146104f1576101e8565b806362b757a6146103f05780636dace819146103fa578063824e4a4b146104255780638651d5a514610450576101e8565b80633c1a8bf7116101b65780633c1a8bf7146102fc5780634487d3df146103275780634755756c1461039a5780634999c905146103c5576101e8565b8063067a388b146101ed5780630f7ee1ec146101f757806310eb0e0e1461026a578063299bfed9146102d1576101e8565b5b600080fd5b6101f561071c565b005b34801561020357600080fd5b506102306004803603602081101561021a57600080fd5b8101908080359060200190929190505050610813565b604051808481526020018381526020018273ffffffffffffffffffffffffffffffffffffffff168152602001935050505060405180910390f35b34801561027657600080fd5b506102b96004803603602081101561028d57600080fd5b81019080803573ffffffffffffffffffffffffffffffffffffffff16906020019092919050505061085d565b60405180821515815260200191505060405180910390f35b3480156102dd57600080fd5b506102e661087d565b6040518082815260200191505060405180910390f35b34801561030857600080fd5b50610311610883565b6040518082815260200191505060405180910390f35b34801561033357600080fd5b506103606004803603602081101561034a57600080fd5b8101908080359060200190929190505050610889565b604051808481526020018381526020018273ffffffffffffffffffffffffffffffffffffffff168152602001935050505060405180910390f35b3480156103a657600080fd5b506103af6108d3565b6040518082815260200191505060405180910390f35b3480156103d157600080fd5b506103da6108d9565b6040518082815260200191505060405180910390f35b6103f86108df565b005b34801561040657600080fd5b5061040f6109b7565b6040518082815260200191505060405180910390f35b34801561043157600080fd5b5061043a6109bd565b6040518082815260200191505060405180910390f35b34801561045c57600080fd5b506104656109c3565b6040518082815260200191505060405180910390f35b34801561048757600080fd5b506104906109c9565b604051808273ffffffffffffffffffffffffffffffffffffffff16815260200191505060405180910390f35b6104c46109ef565b005b3480156104d257600080fd5b506104db610b25565b6040518082815260200191505060405180910390f35b6104f9610b2b565b005b610503610c03565b005b61050d610cdb565b6040518082815260200191505060405180910390f35b34801561052f57600080fd5b50610538610dc8565b6040518082815260200191505060405180910390f35b61059a6004803603604081101561056457600080fd5b8101908080359060200190929190803573ffffffffffffffffffffffffffffffffffffffff169060200190929190505050610dce565b005b6105a4610eef565b005b3480156105b257600080fd5b506105bb610fc7565b6040518082815260200191505060405180910390f35b6105d9610fcd565b005b3480156105e757600080fd5b506105f06110a5565b6040518082815260200191505060405180910390f35b34801561061257600080fd5b5061061b6110ab565b6040518082815260200191505060405180910390f35b6106396110b1565b005b34801561064757600080fd5b50610650611189565b6040518082815260200191505060405180910390f35b61066e61118f565b005b34801561067c57600080fd5b50610685611267565b6040518082815260200191505060405180910390f35b3480156106a757600080fd5b506106b061126d565b6040518082815260200191505060405180910390f35b3480156106d257600080fd5b506106db611273565b6040518082815260200191505060405180910390f35b3480156106fd57600080fd5b50610706611279565b6040518082815260200191505060405180910390f35b33600360009054906101000a900473ffffffffffffffffffffffffffffffffffffffff1673ffffffffffffffffffffffffffffffffffffffff163373ffffffffffffffffffffffffffffffffffffffff16146107c3576040517f08c379a000000000000000000000000000000000000000000000000000000000815260040180806020018281038252602a8152602001806117c3602a913960400191505060405180910390fd5b600754600554036006819055506107fe600654600360009054906101000a900473ffffffffffffffffffffffffffffffffffffffff16610dce565b60065460056000828254039250508190555050565b60296020528060005260406000206000915090508060000154908060010154908060020160009054906101000a900473ffffffffffffffffffffffffffffffffffffffff16905083565b60276020528060005260406000206000915054906101000a900460ff1681565b60215481565b601f5481565b602b6020528060005260406000206000915090508060000154908060010154908060020160009054906101000a900473ffffffffffffffffffffffffffffffffffffffff16905083565b601b5481565b60015481565b601e54600160008282540192505081905550601e54602560008282540192505081905550610931601e54600e60009054906101000a900473ffffffffffffffffffffffffffffffffffffffff16610dce565b7f877b1146f14eaa90edda69fa739b130b3f6d201e8a0f951235a919b82a88b3186004546018546040518083815260200180602001838152602001828103825260158152602001807f53746167652037423a2045717569747920506169640000000000000000000000815250602001935050505060405180910390a16000601e81905550565b60005481565b60225481565b60185481565b600360009054906101000a900473ffffffffffffffffffffffffffffffffffffffff1681565b33600360009054906101000a900473ffffffffffffffffffffffffffffffffffffffff1673ffffffffffffffffffffffffffffffffffffffff163373ffffffffffffffffffffffffffffffffffffffff1614610a96576040517f08c379a000000000000000000000000000000000000000000000000000000000815260040180806020018281038252602a8152602001806117c3602a913960400191505060405180910390fd5b60006018541115610aaa57610aa9610fcd565b5b60006019541115610abe57610abd610b2b565b5b6000601a541115610ad257610ad161118f565b5b6000601b541115610ae657610ae56110b1565b5b6000601c541115610afa57610af9610c03565b5b6000601d541115610b0e57610b0d610eef565b5b6000601e541115610b2257610b216108df565b5b50565b601d5481565b601954600160008282540192505081905550601954602060008282540192505081905550610b7d601954600960009054906101000a900473ffffffffffffffffffffffffffffffffffffffff16610dce565b7f877b1146f14eaa90edda69fa739b130b3f6d201e8a0f951235a919b82a88b31860045460185460405180838152602001806020018381526020018281038252601f8152602001807f53746167652032423a20456d706c6f79656553616c6172696573205061696400815250602001935050505060405180910390a16000601981905550565b601c54600160008282540192505081905550601c54602360008282540192505081905550610c55601c54600c60009054906101000a900473ffffffffffffffffffffffffffffffffffffffff16610dce565b7f877b1146f14eaa90edda69fa739b130b3f6d201e8a0f951235a919b82a88b31860045460185460405180838152602001806020018381526020018281038252601a8152602001807f53746167652035423a20426f6e64686f6c646572732050616964000000000000815250602001935050505060405180910390a16000601c81905550565b60003460026000828254019250508190555060025460008082825401925050819055507f570de027bfa99046095d942a9bece2dddeba043eb155f2149192ea29adc0cfa63334604051808373ffffffffffffffffffffffffffffffffffffffff1681526020018281526020019250505060405180910390a1610d5b61127f565b610d6361134c565b610d6b6113fc565b610d736114c9565b610d7b611579565b610d83611646565b602660003373ffffffffffffffffffffffffffffffffffffffff1673ffffffffffffffffffffffffffffffffffffffff16815260200190815260200160002054905090565b601c5481565b8073ffffffffffffffffffffffffffffffffffffffff166108fc839081150290604051600060405180830381858888f19350505050158015610e14573d6000803e3d6000fd5b506040518060600160405280602a5481526020018381526020018273ffffffffffffffffffffffffffffffffffffffff16815250602b6000602a548152602001908152602001600020600082015181600001556020820151816001015560408201518160020160006101000a81548173ffffffffffffffffffffffffffffffffffffffff021916908373ffffffffffffffffffffffffffffffffffffffff1602179055509050506001602a60008282540192505081905550600754600554036005600082825403925050819055506005546006819055505050565b601d54600160008282540192505081905550601d54602460008282540192505081905550610f41601d54600d60009054906101000a900473ffffffffffffffffffffffffffffffffffffffff16610dce565b7f877b1146f14eaa90edda69fa739b130b3f6d201e8a0f951235a919b82a88b31860045460185460405180838152602001806020018381526020018281038252601e8152602001807f53746167652036423a204a756e696f724372656469746f727320506169640000815250602001935050505060405180910390a16000601d81905550565b601e5481565b601854600160008282540192505081905550601854601f6000828254019250508190555061101f601854600860009054906101000a900473ffffffffffffffffffffffffffffffffffffffff16610dce565b7f877b1146f14eaa90edda69fa739b130b3f6d201e8a0f951235a919b82a88b3186004546018546040518083815260200180602001838152602001828103825260198152602001807f53746167652031423a2041646d696e2046656573205061696400000000000000815250602001935050505060405180910390a16000601881905550565b601a5481565b60025481565b601b54600160008282540192505081905550601b54602260008282540192505081905550611103601b54600b60009054906101000a900473ffffffffffffffffffffffffffffffffffffffff16610dce565b7f877b1146f14eaa90edda69fa739b130b3f6d201e8a0f951235a919b82a88b31860045460185460405180838152602001806020018381526020018281038252601d8152602001807f53746167652034423a2053656e696f7253656375726564732050616964000000815250602001935050505060405180910390a16000601b81905550565b60235481565b601a54600160008282540192505081905550601a546021600082825401925050819055506111e1601a54600a60009054906101000a900473ffffffffffffffffffffffffffffffffffffffff16610dce565b7f877b1146f14eaa90edda69fa739b130b3f6d201e8a0f951235a919b82a88b3186004546018546040518083815260200180602001838152602001828103825260188152602001807f53746167652033423a20476f7674546178657320506169640000000000000000815250602001935050505060405180910390a16000601a81905550565b60255481565b60205481565b60195481565b60245481565b600061128f6010546002546117a9565b905080601860008282540192505081905550806010600082825403925050819055508060026000828254039250508190555060006018541115611349577f877b1146f14eaa90edda69fa739b130b3f6d201e8a0f951235a919b82a88b31860045460185460405180838152602001806020018381526020018281038252601d8152602001807f537461676520313a2041646d696e204665657320416c6c6f6361746564000000815250602001935050505060405180910390a15b50565b600061135c6011546002546117a9565b9050806019600082825401925050819055508060116000828254039250508190555080600260008282540392505081905550600060195411156113f9577f877b1146f14eaa90edda69fa739b130b3f6d201e8a0f951235a919b82a88b31860045460195460405180838152602001806020018381526020018281038252602381526020018061180f60239139604001935050505060405180910390a15b50565b600061140c6012546002546117a9565b905080601a6000828254019250508190555080601260008282540392505081905550806002600082825403925050819055506000601a5411156114c6577f877b1146f14eaa90edda69fa739b130b3f6d201e8a0f951235a919b82a88b318600454601a5460405180838152602001806020018381526020018281038252601c8152602001807f537461676520333b20476f7674546178657320416c6c6f636174656400000000815250602001935050505060405180910390a15b50565b60006114d96013546002546117a9565b905080601b6000828254019250508190555080601360008282540392505081905550806002600082825403925050819055506000601b541115611576577f877b1146f14eaa90edda69fa739b130b3f6d201e8a0f951235a919b82a88b318600454601b5460405180838152602001806020018381526020018281038252602181526020018061183260219139604001935050505060405180910390a15b50565b60006115896014546002546117a9565b905080601c6000828254019250508190555080601460008282540392505081905550806002600082825403925050819055506000601c541115611643577f877b1146f14eaa90edda69fa739b130b3f6d201e8a0f951235a919b82a88b318600454601c5460405180838152602001806020018381526020018281038252601e8152602001807f537461676520353a20426f6e64686f6c6465727320416c6c6f63617465640000815250602001935050505060405180910390a15b50565b6000601754601554600254028161165957fe5b0490506000601754601654600254028161166f57fe5b04905081601d6000828254019250508190555080601e6000828254019250508190555081600260008282540392505081905550806002600082825403925050819055506000601d54111561171d577f877b1146f14eaa90edda69fa739b130b3f6d201e8a0f951235a919b82a88b318600454601d546040518083815260200180602001838152602001828103825260228152602001806117ed60229139604001935050505060405180910390a15b6000601e5411156117a5577f877b1146f14eaa90edda69fa739b130b3f6d201e8a0f951235a919b82a88b318600454601d546040518083815260200180602001838152602001828103825260198152602001807f537461676520363a2045717569747920416c6c6f636174656400000000000000815250602001935050505060405180910390a15b5050565b60008183106117b857816117ba565b825b90509291505056fe4f6e6c7920436f6e74726163744f776e65722063616e206d616b6520646973747269627574696f6e732e537461676520363a204a756e696f724372656469746f727320416c6c6f6361746564537461676520323a20456d706c6f79656553616c617269657320416c6c6f6361746564537461676520343a2053656e696f72536563757265647320416c6c6f6361746564a264697066735822122012293d0a19b51124f06d3dec4389d36c82049351f675bb3c8f0c2f6327caabd564736f6c634300060c0033",
  "immutableReferences": {},
  "source": "pragma solidity ^0.6.12;\n\n// @title Distribution Trustee\n// @author Jason Chroman\n// @notice This is only a proof of concept. It is not ready for actual use with real money involved. \n// @dev All function calls are currently implemented without side effects\n\n\n/* \nBankruptcy Funds Distribution Example\n--------------------------------------\nThe contract enables the distribution of funds according to a waterfall. \nThe amounts in the waterfall are consistent with the Plan that was submitted to and approved by the court. \nThose amounts are specified here in the tiny amounts of wei for this proof of concept. \nIn a real setting the amounts would be specified in currency or stablecoin: \n\n    Admin Fees:             60,000 wei\n    Employee Salaries:     110,000 wei\n    GovtTaxes:              65,000 wei\n    Sr Secured Creditors:  120,000 wei\n    Bondholders:            80,000 wei\n    The Jr Creditors and the equity have agreed to split any remainder on a 60/40 basis.\n\nThe contract will first receive funds.  \nThe contract will only accept funds from the Liquidation Trustee, though anyone can send funds to it. \nThe Admin Fees will be paid in full before any funds are distributed to cover Employee Salaries. \nThen Employee Salaries will be paid in full before any Govt Taxes are paid... and so on. \n\nAfter the Bondholders have received payment, funds will be split between the Jr Creditors and the Equity on a 60/40 basis. \n\nFor simplicity, any funds received get paid out entirely.  The contract does not hold on to funds. \n*/\n\n\n\ncontract DistributionTrustee {\n//====================================================================================================\n//====================================================================================================\n//\n// 1000 - Initial Setup\n//\n//====================================================================================================\n//====================================================================================================\n\n    // 1. Global Variables\n    uint256 public CumulativeReceivedBalance            = 0;\n    uint256 public CumulativePaidOutBalance             = 0;\n    uint256 public AmtReceived                          = 0; \n\n    // 1. Global Variables\n    address payable public owner;\n    uint256 ThisReceipt                                 = 0;\n\n    // 2. Gas Tracking Variables\n    uint256 AvailableGas                                = 0;\n    uint256 DistributableGas                            = 0;\n    uint256 GasTransferFee                              = 21000;\n\n\n    // 3. The parties\n    address payable  AdminFees                          = 0xAb8483F64d9C6d1EcF9b849Ae677dD3315835cb2;\n    address payable  EmployeeSalaries                   = 0x4B20993Bc481177ec7E8f571ceCaE8A9e22C02db;\n    address payable  GovtTaxes                          = 0x78731D3Ca6b7E34aC0F824c42a7cC18A495cabaB;\n    address payable  SrSecuredCreditors                 = 0x617F2E2fD72FD9D5503197092aC168c91465E7f2;\n    address payable  Bondholders                        = 0x17F6AD8Ef982297579C203069C1DbfFE4348c372;\n    address payable  JrCreditors                        = 0x5c6B0f7Bf3E7ce046039Bd8FABdfD3f9F5021678;\n    address payable  Equity                             = 0x03C6FcED478cBbC9a4FAB34eF9f40767739D1Ff7;\n\n    // 4. What each party is owed\n    // a. Parties with fixed payouts\n    uint256 exponentUnits                               = 3;     // at 3, this is a small amount of ETH. At 18, it's full ETH. \n    uint256 AdminFeesPriorityDistributionAmt            = 60*10**exponentUnits;     \n    uint256 EmployeeSalariesPriorityDistributionAmt     = 110*10**exponentUnits;    \n    uint256 GovtTaxesPriorityDistributionAmt            = 65*10**exponentUnits;     \n    uint256 SrSecuredCreditorsPriorityDistributionAmt   = 120*10**exponentUnits;    \n    uint256 BondholdersPriorityDistributionAmt          = 80*10**exponentUnits;     \n\n\n    // b. Parties with variable payouts\n    uint256 JrCreditorsShare                            = 60;\n    uint256 EquityShare                                 = 40;\n    uint256 units                                       = 100;\n\n\n    // 5. Other Overhead\n\n    //initialize AP Accts with zero balances\n    uint256 public AdminFeesPayable                     = 0;\n    uint256 public EmployeeSalariesPayable              = 0;\n    uint256 public GovtTaxesPayable                     = 0;\n    uint256 public SrSecuredCreditorsPayable            = 0;\n    uint256 public BondholdersPayable                   = 0;\n    uint256 public JrCreditorsPayable                   = 0;\n    uint256 public EquityPayable                        = 0;\n\n    \n    uint256 public AdminFeesCumulPaid                   = 0;\n    uint256 public EmployeeSalariesCumulPaid            = 0;\n    uint256 public GovtTaxesCumulPaid                   = 0;\n    uint256 public SrSecuredCreditorsCumulPaid          = 0;\n    uint256 public BondholdersCumulPaid                 = 0;\n    uint256 public JrCreditorsCumulPaid                 = 0;\n    uint256 public EquityCumulPaid                      = 0;\n\n\n\n\n    /* Fill in the keyword. Hint: We want to protect our users balance from other contracts*/\n  //  mapping (address => uint) balances;\n    mapping(address => uint) private balances;    \n\n    /* Fill in the keyword. We want to create a getter function and allow contracts to be able to see if a user is enrolled.  */\n    mapping (address => bool) public enrolled;\n\n    /* Let's make sure everyone knows who owns the bank. Use the appropriate keyword for this*/\n    // address public owner;\n    \n\n    //\n\n\n    //\n    // Functions\n    //\n\n\n\n//====================================================================================================\n//====================================================================================================\n//\n// 1200 - Modifiers\n//\n//====================================================================================================\n//====================================================================================================\n\n\nmodifier onlyOwner(address _address) { require(msg.sender == owner, \"Only ContractOwner can make distributions.\"  ); _;}\n// modifier gottaHaveGas() { require(AvailableGas >= 21000, \"Can't make distributions. Out of Gas. Owner has to add Gas\"  ); _;}\n\n\n//====================================================================================================\n//====================================================================================================\n//\n// 1300 - Enums, Event Logs, and Structs\n//\n//====================================================================================================\n//====================================================================================================\n\n//enum Stage {\"Admin\", \"EmpSal\", \"Taxes\", \"Seniors\", \"Bondholders\", \"Juniors\"}\n\n\n//Events\nevent LogStage(address stage);\nevent LogReceipt(address sender, uint amt);\nevent LogEvent(uint stage, string stagedesc, uint amount);\n\n\n//orig events \nevent LogEnrolled(address accountAddress);  \nevent LogDepositMade(address accountAddress, uint amount);\nevent LogWithdrawal(address accountAddress, uint withdrawAmount, uint newBalance);\n\n\n//Struct#1: Receipts - i.e. Amounts received by the contract\nstruct Receipt {\n    uint receiptNum; \n    uint AmountReceived;\n    address payable ReceivedFrom;\n}\nuint numPmtsReceived = 0;\nmapping(uint256 => Receipt) public receipts;\n\n//Struct#2: Payments - i.e. Amounts paid out by the contract\nstruct Distribution {\n    uint distNum; \n    uint AmountPaid;\n    address payable SentTo;\n}\nuint numDistributions = 0;\nmapping(uint256 => Distribution) public distributions;\n\n\nconstructor() public {\n    // The owner is the creator of this contract, which is the Distribution Trustee */\n    owner = msg.sender;\n}\n\n    // Fallback function - Called if other functions don't match call or\n    // sent ether without data\n    // Typically, called when invalid data is sent\n    // Added so ether sent to this contract is reverted if the contract fails\n    // otherwise, the sender's money is transferred to contract\n    \n    fallback() external payable {\n        revert();\n    }\n    \n//====================================================================================================\n//====================================================================================================\n//\n// 2000 - Calculate Waterfall Amounts\n//\n//====================================================================================================\n//====================================================================================================\n\n    function A_receivePmts() public payable returns (uint) {\n        /* Add the amount to the user's balance, call the event associated with a deposit,\n          then return the balance of the user */\n        //   require(enrolled[msg.sender]);\n\n        AmtReceived                                 += msg.value;           \n        CumulativeReceivedBalance                   += AmtReceived;         \n\n        emit LogReceipt(msg.sender, msg.value);                         \n        P1_ProcessAdminFees();\n        P2_ProcessEmployeeSalaries();\n        P3_ProcessGovTaxes();\n        P4_ProcessSrSecuredCreditors();\n        P5_ProcessBondholders();\n        P6_ProcessJrCreditorsAndEquity();\n\n        return balances[msg.sender];                                        \n    }    \n\n\n    //Waterfall Level 1 - Admin Fees\n    function P1_ProcessAdminFees() private {\n        // uint256 AdminFeeIncrease                      = Math.min(AdminFeesPriorityDistributionAmt, AmtReceived); \n        uint256 AdminFeeIncrease                        = min(AdminFeesPriorityDistributionAmt, AmtReceived); \n        AdminFeesPayable                                += AdminFeeIncrease;\n        AdminFeesPriorityDistributionAmt                -= AdminFeeIncrease; \n        AmtReceived                                     -= AdminFeeIncrease;\n        if (AdminFeesPayable>0) {emit LogEvent(ThisReceipt, \"Stage 1: Admin Fees Allocated\", AdminFeesPayable);}\n    }\n\n    //Waterfall Level 2 - EmployeeSalaries\n    function P2_ProcessEmployeeSalaries() private {\n        // uint256 EmpSalIncrease                       = Math.min(EmployeeSalariesPriorityDistributionAmt, AmtReceived);\n        uint256 EmpSalIncrease                          = min(EmployeeSalariesPriorityDistributionAmt, AmtReceived);\n        EmployeeSalariesPayable                         += EmpSalIncrease; \n        EmployeeSalariesPriorityDistributionAmt         -= EmpSalIncrease; \n        AmtReceived                                     -= EmpSalIncrease;\n        if (EmployeeSalariesPayable>0) {emit LogEvent(ThisReceipt, \"Stage 2: EmployeeSalaries Allocated\", EmployeeSalariesPayable);}\n    }\n\n    //Waterfall Level 3 - GovtTaxes\n    function P3_ProcessGovTaxes() private {\n        uint256 GovTaxIncrease                          = min(GovtTaxesPriorityDistributionAmt, AmtReceived);\n        GovtTaxesPayable                                += GovTaxIncrease; \n        GovtTaxesPriorityDistributionAmt                -= GovTaxIncrease; \n        AmtReceived                                     -= GovTaxIncrease;\n        if (GovtTaxesPayable>0) {emit LogEvent(ThisReceipt, \"Stage 3; GovtTaxes Allocated\", GovtTaxesPayable);}\n    }\n\n    //Waterfall Level 4 - SrSecuredCreditors\n    function P4_ProcessSrSecuredCreditors() private {\n        uint256 SrSecuredIncrease                       = min(SrSecuredCreditorsPriorityDistributionAmt, AmtReceived);\n        SrSecuredCreditorsPayable                       += SrSecuredIncrease; \n        SrSecuredCreditorsPriorityDistributionAmt       -= SrSecuredIncrease; \n        AmtReceived                                     -= SrSecuredIncrease;\n        if (SrSecuredCreditorsPayable>0) {emit LogEvent(ThisReceipt, \"Stage 4: SeniorSecureds Allocated\", SrSecuredCreditorsPayable);}\n    }\n\n    //Waterfall Level 5 - Bondholders\n    function P5_ProcessBondholders() private {\n        uint256 BondholdersIncrease                     = min(BondholdersPriorityDistributionAmt, AmtReceived);\n        BondholdersPayable                              += BondholdersIncrease; \n        BondholdersPriorityDistributionAmt              -= BondholdersIncrease; \n        AmtReceived                                     -= BondholdersIncrease;\n        if (BondholdersPayable>0) {emit LogEvent(ThisReceipt, \"Stage 5: Bondholders Allocated\", BondholdersPayable);}\n    }\n\n    //Waterfall Level 6 - Jr Creditors & Equity\n    function P6_ProcessJrCreditorsAndEquity() private {\n        // SafeMath didn't work properly in Remix\n        // uint256 JrCreditorsIncrease                  = SafeMath.mul(AmtReceived, SafeMath.div(JrCreditorsShare,units)); \n        // uint256 EquityIncrease                       = SafeMath.mul(AmtReceived, SafeMath.div(EquityShare, units)); \n        uint256 JrCreditorsIncrease                     = AmtReceived * JrCreditorsShare / units; \n        uint256 EquityIncrease                          = AmtReceived * EquityShare / units; \n        JrCreditorsPayable                              += JrCreditorsIncrease; \n        EquityPayable                                   += EquityIncrease; \n        AmtReceived                                     -= JrCreditorsIncrease;\n        AmtReceived                                     -= EquityIncrease;\n        if (JrCreditorsPayable>0) {emit LogEvent(ThisReceipt, \"Stage 6: JuniorCreditors Allocated\", JrCreditorsPayable);}\n        if (EquityPayable>0) {emit LogEvent(ThisReceipt, \"Stage 6: Equity Allocated\", JrCreditorsPayable);}\n    }\n\n\n\n\n\n\n//====================================================================================================\n//====================================================================================================\n//\n// 3000 - Make Payouts\n//\n//====================================================================================================\n//====================================================================================================\n\n// @notice This is the primary \"traffic cop\" for distributing funds that have been allocated to the parties \n// @dev To save gas, subfunctions are called to make the payouts, but only if there is a payout to make. \n    function D_makeDistributions() payable public onlyOwner(msg.sender) {\n        if(AdminFeesPayable>0)                          {D1_distributeToAdminFees();}\n        if(EmployeeSalariesPayable>0)                   {D2_distributeToEmployeeSalaries();}\n        if(GovtTaxesPayable>0)                          {D3_distributeToGovtTaxes();}\n        if(SrSecuredCreditorsPayable>0)                 {D4_distributeToSrSecuredCreditors();}\n        if(BondholdersPayable>0)                        {D5_distributeToBondholders();}\n        if(JrCreditorsPayable>0)                        {D6_distributeToJrCreditors();}\n        if(EquityPayable>0)                             {D7_distributeToEquity();}\n    }\n\n    function D1_distributeToAdminFees() payable public  {\n        CumulativePaidOutBalance                        += AdminFeesPayable;\n        AdminFeesCumulPaid                              += AdminFeesPayable;\n        distributePayments(AdminFeesPayable, AdminFees);\n\n        emit LogEvent(ThisReceipt, \"Stage 1B: Admin Fees Paid\", AdminFeesPayable);\n        AdminFeesPayable                                = 0;\n    }\n\n    function D2_distributeToEmployeeSalaries() payable public  {\n        CumulativePaidOutBalance                        += EmployeeSalariesPayable;\n        EmployeeSalariesCumulPaid                       += EmployeeSalariesPayable;\n        distributePayments(EmployeeSalariesPayable, EmployeeSalaries);\n\n        emit LogEvent(ThisReceipt, \"Stage 2B: EmployeeSalaries Paid\", AdminFeesPayable);\n        EmployeeSalariesPayable                         = 0;\n    }\n    function D3_distributeToGovtTaxes() payable public  {\n        CumulativePaidOutBalance                        += GovtTaxesPayable;\n        GovtTaxesCumulPaid                              += GovtTaxesPayable;\n        distributePayments(GovtTaxesPayable, GovtTaxes);\n\n        emit LogEvent(ThisReceipt, \"Stage 3B: GovtTaxes Paid\", AdminFeesPayable);\n        GovtTaxesPayable                                = 0;\n    }\n    function D4_distributeToSrSecuredCreditors() payable public  {\n        CumulativePaidOutBalance                        += SrSecuredCreditorsPayable;\n        SrSecuredCreditorsCumulPaid                     += SrSecuredCreditorsPayable;\n        distributePayments(SrSecuredCreditorsPayable, SrSecuredCreditors);\n\n        emit LogEvent(ThisReceipt, \"Stage 4B: SeniorSecureds Paid\", AdminFeesPayable);\n        SrSecuredCreditorsPayable                       = 0;\n    }\n    function D5_distributeToBondholders() payable public  {\n        CumulativePaidOutBalance                        += BondholdersPayable;\n        BondholdersCumulPaid                            += BondholdersPayable;\n        distributePayments(BondholdersPayable, Bondholders);\n\n        emit LogEvent(ThisReceipt, \"Stage 5B: Bondholders Paid\", AdminFeesPayable);\n        BondholdersPayable                              = 0;\n    }\n    function D6_distributeToJrCreditors() payable public  {\n        CumulativePaidOutBalance                        += JrCreditorsPayable;\n        JrCreditorsCumulPaid                            += JrCreditorsPayable;\n        distributePayments(JrCreditorsPayable, JrCreditors);\n\n        emit LogEvent(ThisReceipt, \"Stage 6B: JuniorCreditors Paid\", AdminFeesPayable);\n        JrCreditorsPayable                              = 0;\n    }\n    function D7_distributeToEquity() payable public  {\n        CumulativePaidOutBalance                        += EquityPayable;\n        EquityCumulPaid                                 += EquityPayable;\n        distributePayments(EquityPayable, Equity);\n\n        emit LogEvent(ThisReceipt, \"Stage 7B: Equity Paid\", AdminFeesPayable);\n        EquityPayable                                   = 0;\n    }\n\n    function returnGas() payable public onlyOwner(msg.sender) {\n        DistributableGas                                = AvailableGas - GasTransferFee; \n        distributePayments(DistributableGas , owner);\n        AvailableGas                                    -= DistributableGas;\n    }\n\n\n// @notice This function below is called by the functions above for making payouts. \n// @dev Funds can only leave the contract thru this function. \n// @param The function is called with an amount to pay and the address of a party to be paid. \n// @return QUESTION: Nothing is returned.  Should it return a booolean TRUE if successful and FALSE if unsuccessful?  \n\n    function distributePayments(uint256 Amt, address payable PartyToPay ) payable public {\n        PartyToPay.transfer(Amt);  \n        distributions[numDistributions] = Distribution({distNum: numDistributions, AmountPaid: Amt, SentTo: PartyToPay });\n        numDistributions                                += 1;\n        AvailableGas                                    -= AvailableGas - GasTransferFee; \n        DistributableGas                                = AvailableGas; \n\n    }\n\n\n//---------------------------------------------------------------------------------------------\n//---------------------------------------------------------------------------------------------\n//  9000 - Add Ins\n//---------------------------------------------------------------------------------------------\n//---------------------------------------------------------------------------------------------\n\n   //Returns the smallest of two numbers.\n    function min(uint256 a, uint256 b) internal pure returns (uint256) {\n        return a < b ? a : b;\n    }\n\n}\n\n\n",
  "sourcePath": "C:/2. Consensys/git/Distribution Trustee/contracts/DistributionTrustee.sol",
  "compiler": {
    "name": "solc",
    "version": "0.6.12+commit.27d51765.Emscripten.clang"
  },
  "schemaVersion": "3.3.2",
  "updatedAt": "2020-11-19T23:17:12.809Z",
  "devdoc": {
    "kind": "dev",
    "methods": {},
    "version": 1
  },
  "userdoc": {
    "kind": "user",
    "methods": {},
    "version": 1
  }
}